:1007580012079D1207BF907F037480F01205E11203
:07076800076F12061580F572
:1004E800082E01020408102040800A37C0F9A4B081
:0F04F800999282F88098013600012C00012D00A6
:1002E90078497C007D007B007A0079247E007F04B8
:0302F90012025D91
:1002FC00E4AE49AF4AFC7D64120283AB07AE49AF52
:10030C004A7C007D64120283AF05E52CD394074030
:10031C0003E4F52C742E252CF8E6907F01F0E52CE7
:10032C00C3131460231460391460512403706CE5FA
:10033C002C30E00BEB75F00A84743725F08056EB0B
:10034C0075F00A842437804DE52C30E00BEF75F006
:10035C000A84743725F08007EF75F00A84243780FF
:10036C0034E52C30E00CE54B75F00A84743725F03D
:10037C008008E54B75F00A8424378019E52C30E0B1
:10038C000CE54C75F00A84743725F08008E54C7543
:0D039C00F00A842437F8E6907F00F0052C6D
:0103A9002231
:1003AA00E544700DE549D3940C400674F42549F5EB
:1003BA0049E52DD394074003E4F52D742E252DF835
:1003CA00E6907F01F0E52DC3131460251460311403
:1003DA00604724037079E52D30E00CE54975F00A91
:1003EA0084743725F08062E54975F00A84243780E1
:1003FA0058E52D30E00FE54A75F00A842437804924
:10040A00E52D30E008907F0074BFF08042E54A7520
:10041A00F00A84743725F08030E52D30E023E54674
:10042A0020E410E54B75F00A84743725F0F8E65499
:10043A007F8018E54B75F00A84743725F0F8E6805A
:10044A000AE54B75F00A842437F8E6907F00F00538
:01045A002D74
:01045B00227E
:1006AB00E541601678497C007D007B007A0079215A
:0E06BB007E007F0312025D0203AA1202E922F2
:1006C900E541601678497C007D007B007A0079213C
:0E06D9007E007F0312025D0203AA1202E922D4
:10068C000523E523B43C17E4F5230522E522B43C0D
:0F069C000DE4F5220521E521B41803E4F5212230
:10064200E52BD394004003152B22E52AD3940040D6
:1006520006752B3C152A22E529D39400400815295A
:07066200752A3B752B3C22B9
:10061500E54620E411E52B700DE52A7009E5297002
:1006250005753601C297E536B402047F0180027F65
:0D06350000AE46EEC454014F6002D2972281
:10076F00E52830E0115328FEE542146006047006B8
:07077F000206AB1206C922BD
:10050700042407E30C0A041D000000000321091E50
:1005170032031A000000032900000A040800000043
:1005270000040C0000000004100000000004140088
:0905370000000001180001190088
:10079D005389F0758ACD758CD4C28DD28CD2A9D2E5
:0207AD00AF2279
:03000B0002000EE2
:10000E00C0E0C0F0C083C082C0D075D000C000C0B8
:0D001E0001C002C003C004C005C006C00739
:10002B00758ACD758CD405180519AF46EF1313548B
:10003B00036003020110E50B2401F50BE4350AF50F
:10004B000AE43509F509E43508F508E542705AE587
:10005B000F2401F50FE4350EF50EE4350DF50DE427
:10006B00350CF50C75130075120075110075100029
:10007B00E47FB87E0BFDFCAB0FAA0EA90DA80CC339
:10008B001202D87003754101E47F107E27FDFCAB93
:10009B000FAA0EA90DA80CC31202D8703BF50FF5D1
:1000AB000EF50DF50CF541802FE5132401F513E446
:1000BB003512F512E43511F511E43510F510E47F26
:1000CB00107E27FDFCAB13AA12A911A810C31202B4
:1000DB00D87005F542854341E47FE87E03FDFCAB18
:1000EB000BAA0AA909A808C31202D84018750B005D
:1000FB00750A00750900750800E542640360061275
:10010B00068C120642E536B40107E518B4080D80DB
:10011B0005E518B40306751800432801E519B43238
:10012B0006751900432808E536B4012FE51724019D
:10013B00F517E43516F516E43515F515E43514F514
:10014B0014E47F307E75FDFCAB17AA16A915A81415
:10015B00C31202D870115328FB800C75170075164B
:07016B00007515007514007A
:10017200D007D006D005D004D003D002D001D000E1
:0B018200D0D0D082D083D0F0D0E0328B
:0907BF00D290D291D292D2932281
:100722002090037F01222091037F02222092037FE7
:0B07320003222093037F04227F00229B
:10073D00E4FFE52830E3135328F7120722E545B50A
:0A074D000706F547E4F545228F4545
:01075700227F
:10070500854143754201E5416005E4F54180037586
:0D0715004101E4F547E53660037536022228
:10078600E5446005E4F5448003754401E4F547E576
:0707960036600375360222F4
:10057700E5476403702EAF46EF13135403FEEF54A1
:10058700F3FFEE04540325E025E04FF5461313541B
:1005970003FFBF03035346F3E5366003753602E4F2
:0505A700F548F54722B4
:10066900AF46EFC4540F20E0047F0180027F00EF02
:100679005401C454F0FFE54654EF4FF546E4F547FD
:03068900F5362221
:1007AF00E4F5470548E548C394074003E4F54822BC
:10054100E54824FE601A14601B14601C14601D141D
:10055100601E2405701C051EE51E7016051D801207
:10056100051F800E0520800A051A8006051B8002E2
:06057100051CE4F5472221
:1006E700852027851F26851D24851E25851A21859A
:0E06F7001B22851C235346F3E4F548F54722E9
:1005AC00E54724FE600D14600D14602524037024AF
:1005BC000207AF020541AF46EF1313543FFEEF5451
:1005CC00F3FFEE04540325E025E04FF546E4F54730
:0505DC00221206E722D7
:1005E10012073DAF46EF13135403FDBD010512057C
:1005F100AC801EED701BE54724FE600D24FE600EED
:100601002403700D12070580081207868003120665
:0406110069020577FE
:0300000002045C9B
:0C045C00787FE4F6D8FD75814C0204A303
:10018D00E709F608DFFA8046E709F208DFFA803E54
:10019D0088828C83E709F0A3DFFA8032E309F60841
:1001AD00DFFA8078E309F208DFFA807088828C83A9
:1001BD00E309F0A3DFFA806489828A83E0A3F6085D
:1001CD00DFFA805889828A83E0A3F208DFFA804C37
:1001DD0080D280FA80C680D4806980F2803380100E
:1001ED0080A680EA809A80A880DA80E280CA803377
:1001FD0089828A83ECFAE493A3C8C582C8CCC583EF
:10020D00CCF0A3C8C582C8CCC583CCDFE9DEE780BE
:10021D000D89828A83E493A3F608DFF9ECFAA9F03D
:10022D00EDFB2289828A83ECFAE0A3C8C582C8CC93
:10023D00C583CCF0A3C8C582C8CCC583CCDFEADEAC
:10024D00E880DB89828A83E493A3F208DFF980CC0E
:10025D0088F0EF60010E4E60C388F0ED2402B40407
:10026D000050B9F582EB2402B4040050AF232345AE
:06027D0082239001DD73F5
:10028300BC000BBE0029EF8DF084FFADF022E4CC5F
:10029300F875F008EF2FFFEE33FEEC33FCEE9DEC28
:1002A300984005FCEE9DFE0FD5F0E9E4CEFD22ED6E
:1002B300F8F5F0EE8420D21CFEADF075F008EF2FB8
:1002C300FFED33FD4007985006D5F0F222C398FDA9
:0502D3000FD5F0EA2246
:1002D800EB9FF5F0EA9E42F0E99D42F0E89C45F07C
:0102E80022F3
:10046800020758E493A3F8E493A34003F68001F24B
:1004780008DFF48029E493A3F85407240CC8C33395
:10048800C4540F4420C8834004F456800146F6DF64
:10049800E4800B01020408102040809004E8E47E08
:1004A800019360BCA3FF543F30E509541FFEE49359
:1004B800A360010ECF54C025E060A840B8E493A320
:1004C800FAE493A3F8E493A3C8C582C8CAC583CA4B
:1004D800F0A3C8C582C8CAC583CADFE9DEE780BE03
:0105400000BA
:00000001FF
